{
  "contractName": "RobotSwarm",
  "abi": [
    {
      "inputs": [],
      "name": "total",
      "outputs": [
        {
          "internalType": "uint256",
          "name": "",
          "type": "uint256"
        }
      ],
      "stateMutability": "view",
      "type": "function",
      "constant": true
    },
    {
      "inputs": [],
      "name": "getOrder",
      "outputs": [
        {
          "internalType": "string",
          "name": "",
          "type": "string"
        }
      ],
      "stateMutability": "nonpayable",
      "type": "function"
    },
    {
      "inputs": [
        {
          "internalType": "uint256",
          "name": "number",
          "type": "uint256"
        }
      ],
      "name": "increment",
      "outputs": [],
      "stateMutability": "nonpayable",
      "type": "function"
    }
  ],
  "bytecode": "0x608060405234801561001057600080fd5b50610354806100206000396000f3fe608060405234801561001057600080fd5b50600436106100415760003560e01c80632ddbd13a146100465780637cf5dab014610064578063d36dedd214610080575b600080fd5b61004e61009e565b60405161005b9190610165565b60405180910390f35b61007e600480360381019061007991906101b1565b6100a4565b005b6100886100bf565b6040516100959190610277565b60405180910390f35b60005481565b806000808282546100b591906102c8565b9250508190555050565b6060600a600054111561011057600080819055506040518060400160405280600581526020017f52696768740000000000000000000000000000000000000000000000000000008152509050610149565b6040518060400160405280600481526020017f4c6566740000000000000000000000000000000000000000000000000000000081525090505b90565b6000819050919050565b61015f8161014c565b82525050565b600060208201905061017a6000830184610156565b92915050565b600080fd5b61018e8161014c565b811461019957600080fd5b50565b6000813590506101ab81610185565b92915050565b6000602082840312156101c7576101c6610180565b5b60006101d58482850161019c565b91505092915050565b600081519050919050565b600082825260208201905092915050565b60005b838110156102185780820151818401526020810190506101fd565b83811115610227576000848401525b50505050565b6000601f19601f8301169050919050565b6000610249826101de565b61025381856101e9565b93506102638185602086016101fa565b61026c8161022d565b840191505092915050565b60006020820190508181036000830152610291818461023e565b905092915050565b7f4e487b7100000000000000000000000000000000000000000000000000000000600052601160045260246000fd5b60006102d38261014c565b91506102de8361014c565b9250827fffffffffffffffffffffffffffffffffffffffffffffffffffffffffffffffff0382111561031357610312610299565b5b82820190509291505056fea2646970667358221220e8b6ee25f838ac7d9e42933e93c8fdc75a7cb1555b74ec3a5ab4a142f1a2210d64736f6c634300080e0033",
  "immutableReferences": {},
  "source": "// SPDX-License-Identifier: MIT\npragma solidity ^0.8.14;\n\ncontract RobotSwarm {\n    uint256 public total;\n\n    function getOrder() public returns (string memory) {\n        if (total > 10) {\n            total = 0;\n            return \"Right\";\n        }\n        return \"Left\";\n    }\n\n    function increment(uint256 number) public {\n        total += number;\n    }\n}\n",
  "sourcePath": "/home/miguel/BlockchainSwarmTest/Truffle/contracts/RobotSwarm.sol",
  "compiler": {
    "name": "solc",
    "version": "0.8.14+commit.80d49f37.Emscripten.clang"
  },
  "schemaVersion": "3.4.7",
  "updatedAt": "2022-05-29T15:08:27.249Z",
  "networkType": "ethereum",
  "devdoc": {
    "kind": "dev",
    "methods": {},
    "version": 1
  },
  "userdoc": {
    "kind": "user",
    "methods": {},
    "version": 1
  }
}