{
  "contractName": "RobotSwarm",
  "abi": [
    {
      "inputs": [],
      "name": "total",
      "outputs": [
        {
          "internalType": "uint256",
          "name": "",
          "type": "uint256"
        }
      ],
      "stateMutability": "view",
      "type": "function",
      "constant": true
    },
    {
      "inputs": [],
      "name": "getOrder",
      "outputs": [
        {
          "internalType": "string",
          "name": "",
          "type": "string"
        }
      ],
      "stateMutability": "view",
      "type": "function",
      "constant": true
    },
    {
      "inputs": [],
      "name": "getTotal",
      "outputs": [
        {
          "internalType": "uint256",
          "name": "",
          "type": "uint256"
        }
      ],
      "stateMutability": "view",
      "type": "function",
      "constant": true
    },
    {
      "inputs": [
        {
          "internalType": "uint256",
          "name": "number",
          "type": "uint256"
        }
      ],
      "name": "increment",
      "outputs": [],
      "stateMutability": "nonpayable",
      "type": "function"
    }
  ],
  "bytecode": "0x608060405234801561001057600080fd5b506103ea806100206000396000f3fe608060405234801561001057600080fd5b506004361061004c5760003560e01c80632ddbd13a14610051578063775a25e31461006f5780637cf5dab01461008d578063d36dedd2146100a9575b600080fd5b6100596100c7565b604051610066919061019b565b60405180910390f35b6100776100cd565b604051610084919061019b565b60405180910390f35b6100a760048036038101906100a291906101e7565b6100d6565b005b6100b16100f1565b6040516100be91906102ad565b60405180910390f35b60005481565b60008054905090565b806000808282546100e791906102fe565b9250508190555050565b6060600060026000546101049190610383565b03610146576040518060400160405280600581526020017f5269676874000000000000000000000000000000000000000000000000000000815250905061017f565b6040518060400160405280600481526020017f4c6566740000000000000000000000000000000000000000000000000000000081525090505b90565b6000819050919050565b61019581610182565b82525050565b60006020820190506101b0600083018461018c565b92915050565b600080fd5b6101c481610182565b81146101cf57600080fd5b50565b6000813590506101e1816101bb565b92915050565b6000602082840312156101fd576101fc6101b6565b5b600061020b848285016101d2565b91505092915050565b600081519050919050565b600082825260208201905092915050565b60005b8381101561024e578082015181840152602081019050610233565b8381111561025d576000848401525b50505050565b6000601f19601f8301169050919050565b600061027f82610214565b610289818561021f565b9350610299818560208601610230565b6102a281610263565b840191505092915050565b600060208201905081810360008301526102c78184610274565b905092915050565b7f4e487b7100000000000000000000000000000000000000000000000000000000600052601160045260246000fd5b600061030982610182565b915061031483610182565b9250827fffffffffffffffffffffffffffffffffffffffffffffffffffffffffffffffff03821115610349576103486102cf565b5b828201905092915050565b7f4e487b7100000000000000000000000000000000000000000000000000000000600052601260045260246000fd5b600061038e82610182565b915061039983610182565b9250826103a9576103a8610354565b5b82820690509291505056fea26469706673582212208ef8f456f6a62106cafd0f651bc6e90d4a5e793cb95479448a87d806dce0c5f764736f6c634300080e0033",
  "immutableReferences": {},
  "source": "// SPDX-License-Identifier: MIT\npragma solidity ^0.8.14;\n\ncontract RobotSwarm {\n    uint256 public total;\n\n    function getOrder() public view returns (string memory) {\n        if (total % 2 == 0) {\n            return \"Right\";\n        }\n        return \"Left\";\n    }\n\n    function getTotal() public view returns (uint256) {\n        return total;\n    }\n\n    function increment(uint256 number) public {\n        total += number;\n    }\n}\n",
  "sourcePath": "/home/miguel/BlockchainSwarmTest/Truffle/contracts/RobotSwarm.sol",
  "compiler": {
    "name": "solc",
    "version": "0.8.14+commit.80d49f37.Emscripten.clang"
  },
  "schemaVersion": "3.4.7",
  "updatedAt": "2022-05-29T17:06:45.690Z",
  "networkType": "ethereum",
  "devdoc": {
    "kind": "dev",
    "methods": {},
    "version": 1
  },
  "userdoc": {
    "kind": "user",
    "methods": {},
    "version": 1
  }
}